{
  "_format": "hh-sol-artifact-1",
  "contractName": "ArcaneETH",
  "sourceName": "contracts/ARCETH_contract.sol",
  "abi": [
    {
      "inputs": [],
      "stateMutability": "payable",
      "type": "constructor"
    },
    {
      "anonymous": false,
      "inputs": [
        {
          "indexed": true,
          "internalType": "address",
          "name": "owner",
          "type": "address"
        },
        {
          "indexed": true,
          "internalType": "address",
          "name": "approved",
          "type": "address"
        },
        {
          "indexed": true,
          "internalType": "uint256",
          "name": "tokenId",
          "type": "uint256"
        }
      ],
      "name": "Approval",
      "type": "event"
    },
    {
      "anonymous": false,
      "inputs": [
        {
          "indexed": true,
          "internalType": "address",
          "name": "owner",
          "type": "address"
        },
        {
          "indexed": true,
          "internalType": "address",
          "name": "operator",
          "type": "address"
        },
        {
          "indexed": false,
          "internalType": "bool",
          "name": "approved",
          "type": "bool"
        }
      ],
      "name": "ApprovalForAll",
      "type": "event"
    },
    {
      "anonymous": false,
      "inputs": [
        {
          "indexed": false,
          "internalType": "uint256",
          "name": "_fromTokenId",
          "type": "uint256"
        },
        {
          "indexed": false,
          "internalType": "uint256",
          "name": "_toTokenId",
          "type": "uint256"
        }
      ],
      "name": "BatchMetadataUpdate",
      "type": "event"
    },
    {
      "anonymous": false,
      "inputs": [
        {
          "indexed": false,
          "internalType": "uint256",
          "name": "_tokenId",
          "type": "uint256"
        }
      ],
      "name": "MetadataUpdate",
      "type": "event"
    },
    {
      "anonymous": false,
      "inputs": [
        {
          "indexed": true,
          "internalType": "address",
          "name": "previousOwner",
          "type": "address"
        },
        {
          "indexed": true,
          "internalType": "address",
          "name": "newOwner",
          "type": "address"
        }
      ],
      "name": "OwnershipTransferred",
      "type": "event"
    },
    {
      "anonymous": false,
      "inputs": [
        {
          "indexed": true,
          "internalType": "address",
          "name": "from",
          "type": "address"
        },
        {
          "indexed": true,
          "internalType": "address",
          "name": "to",
          "type": "address"
        },
        {
          "indexed": true,
          "internalType": "uint256",
          "name": "tokenId",
          "type": "uint256"
        }
      ],
      "name": "Transfer",
      "type": "event"
    },
    {
      "inputs": [
        {
          "internalType": "address",
          "name": "to",
          "type": "address"
        },
        {
          "internalType": "uint256",
          "name": "tokenId",
          "type": "uint256"
        }
      ],
      "name": "approve",
      "outputs": [],
      "stateMutability": "nonpayable",
      "type": "function"
    },
    {
      "inputs": [
        {
          "internalType": "address",
          "name": "_owner",
          "type": "address"
        },
        {
          "internalType": "enum ArcaneETH.CardType",
          "name": "_type",
          "type": "uint8"
        }
      ],
      "name": "balanceOf",
      "outputs": [
        {
          "internalType": "uint256",
          "name": "",
          "type": "uint256"
        }
      ],
      "stateMutability": "view",
      "type": "function"
    },
    {
      "inputs": [
        {
          "internalType": "address",
          "name": "owner",
          "type": "address"
        }
      ],
      "name": "balanceOf",
      "outputs": [
        {
          "internalType": "uint256",
          "name": "",
          "type": "uint256"
        }
      ],
      "stateMutability": "view",
      "type": "function"
    },
    {
      "inputs": [],
      "name": "baseTokenURI",
      "outputs": [
        {
          "internalType": "string",
          "name": "",
          "type": "string"
        }
      ],
      "stateMutability": "view",
      "type": "function"
    },
    {
      "inputs": [
        {
          "internalType": "uint256",
          "name": "",
          "type": "uint256"
        }
      ],
      "name": "cardSettings",
      "outputs": [
        {
          "internalType": "enum ArcaneETH.CardType",
          "name": "cardType",
          "type": "uint8"
        },
        {
          "internalType": "uint256",
          "name": "mintPrice",
          "type": "uint256"
        },
        {
          "internalType": "uint256",
          "name": "cardtotalSupply",
          "type": "uint256"
        },
        {
          "internalType": "uint256",
          "name": "maxSupply",
          "type": "uint256"
        },
        {
          "internalType": "uint256",
          "name": "maxPerWallet",
          "type": "uint256"
        }
      ],
      "stateMutability": "view",
      "type": "function"
    },
    {
      "inputs": [
        {
          "internalType": "uint256",
          "name": "tokenId",
          "type": "uint256"
        }
      ],
      "name": "getApproved",
      "outputs": [
        {
          "internalType": "address",
          "name": "",
          "type": "address"
        }
      ],
      "stateMutability": "view",
      "type": "function"
    },
    {
      "inputs": [
        {
          "internalType": "address",
          "name": "owner",
          "type": "address"
        },
        {
          "internalType": "address",
          "name": "operator",
          "type": "address"
        }
      ],
      "name": "isApprovedForAll",
      "outputs": [
        {
          "internalType": "bool",
          "name": "",
          "type": "bool"
        }
      ],
      "stateMutability": "view",
      "type": "function"
    },
    {
      "inputs": [],
      "name": "isPublicMintEnabled",
      "outputs": [
        {
          "internalType": "bool",
          "name": "",
          "type": "bool"
        }
      ],
      "stateMutability": "view",
      "type": "function"
    },
    {
      "inputs": [
        {
          "internalType": "enum ArcaneETH.CardType",
          "name": "_type",
          "type": "uint8"
        },
        {
          "internalType": "string",
          "name": "_tokenURI",
          "type": "string"
        }
      ],
      "name": "mint",
      "outputs": [],
      "stateMutability": "payable",
      "type": "function"
    },
    {
      "inputs": [],
      "name": "name",
      "outputs": [
        {
          "internalType": "string",
          "name": "",
          "type": "string"
        }
      ],
      "stateMutability": "view",
      "type": "function"
    },
    {
      "inputs": [],
      "name": "owner",
      "outputs": [
        {
          "internalType": "address",
          "name": "",
          "type": "address"
        }
      ],
      "stateMutability": "view",
      "type": "function"
    },
    {
      "inputs": [
        {
          "internalType": "uint256",
          "name": "tokenId",
          "type": "uint256"
        }
      ],
      "name": "ownerOf",
      "outputs": [
        {
          "internalType": "address",
          "name": "",
          "type": "address"
        }
      ],
      "stateMutability": "view",
      "type": "function"
    },
    {
      "inputs": [],
      "name": "renounceOwnership",
      "outputs": [],
      "stateMutability": "nonpayable",
      "type": "function"
    },
    {
      "inputs": [
        {
          "internalType": "address",
          "name": "from",
          "type": "address"
        },
        {
          "internalType": "address",
          "name": "to",
          "type": "address"
        },
        {
          "internalType": "uint256",
          "name": "tokenId",
          "type": "uint256"
        }
      ],
      "name": "safeTransferFrom",
      "outputs": [],
      "stateMutability": "nonpayable",
      "type": "function"
    },
    {
      "inputs": [
        {
          "internalType": "address",
          "name": "from",
          "type": "address"
        },
        {
          "internalType": "address",
          "name": "to",
          "type": "address"
        },
        {
          "internalType": "uint256",
          "name": "tokenId",
          "type": "uint256"
        },
        {
          "internalType": "bytes",
          "name": "data",
          "type": "bytes"
        }
      ],
      "name": "safeTransferFrom",
      "outputs": [],
      "stateMutability": "nonpayable",
      "type": "function"
    },
    {
      "inputs": [
        {
          "internalType": "address",
          "name": "operator",
          "type": "address"
        },
        {
          "internalType": "bool",
          "name": "approved",
          "type": "bool"
        }
      ],
      "name": "setApprovalForAll",
      "outputs": [],
      "stateMutability": "nonpayable",
      "type": "function"
    },
    {
      "inputs": [
        {
          "internalType": "string",
          "name": "_baseTokenURI",
          "type": "string"
        }
      ],
      "name": "setBaseTokenURI",
      "outputs": [],
      "stateMutability": "nonpayable",
      "type": "function"
    },
    {
      "inputs": [
        {
          "internalType": "bool",
          "name": "isPublicMintEnabled_",
          "type": "bool"
        }
      ],
      "name": "setIsPublicMintEnabled",
      "outputs": [],
      "stateMutability": "nonpayable",
      "type": "function"
    },
    {
      "inputs": [
        {
          "internalType": "bytes4",
          "name": "interfaceId",
          "type": "bytes4"
        }
      ],
      "name": "supportsInterface",
      "outputs": [
        {
          "internalType": "bool",
          "name": "",
          "type": "bool"
        }
      ],
      "stateMutability": "view",
      "type": "function"
    },
    {
      "inputs": [],
      "name": "symbol",
      "outputs": [
        {
          "internalType": "string",
          "name": "",
          "type": "string"
        }
      ],
      "stateMutability": "view",
      "type": "function"
    },
    {
      "inputs": [
        {
          "internalType": "uint256",
          "name": "tokenId",
          "type": "uint256"
        }
      ],
      "name": "tokenURI",
      "outputs": [
        {
          "internalType": "string",
          "name": "",
          "type": "string"
        }
      ],
      "stateMutability": "view",
      "type": "function"
    },
    {
      "inputs": [
        {
          "internalType": "address",
          "name": "_owner",
          "type": "address"
        }
      ],
      "name": "totalBalanceOf",
      "outputs": [
        {
          "internalType": "uint256",
          "name": "",
          "type": "uint256"
        }
      ],
      "stateMutability": "view",
      "type": "function"
    },
    {
      "inputs": [],
      "name": "totalSupply",
      "outputs": [
        {
          "internalType": "uint256",
          "name": "",
          "type": "uint256"
        }
      ],
      "stateMutability": "view",
      "type": "function"
    },
    {
      "inputs": [
        {
          "internalType": "address",
          "name": "from",
          "type": "address"
        },
        {
          "internalType": "address",
          "name": "to",
          "type": "address"
        },
        {
          "internalType": "uint256",
          "name": "tokenId",
          "type": "uint256"
        }
      ],
      "name": "transferFrom",
      "outputs": [],
      "stateMutability": "nonpayable",
      "type": "function"
    },
    {
      "inputs": [
        {
          "internalType": "address",
          "name": "newOwner",
          "type": "address"
        }
      ],
      "name": "transferOwnership",
      "outputs": [],
      "stateMutability": "nonpayable",
      "type": "function"
    },
    {
      "inputs": [
        {
          "internalType": "address",
          "name": "",
          "type": "address"
        },
        {
          "internalType": "enum ArcaneETH.CardType",
          "name": "",
          "type": "uint8"
        }
      ],
      "name": "walletMints",
      "outputs": [
        {
          "internalType": "uint256",
          "name": "",
          "type": "uint256"
        }
      ],
      "stateMutability": "view",
      "type": "function"
    },
    {
      "inputs": [],
      "name": "withdraw",
      "outputs": [],
      "stateMutability": "nonpayable",
      "type": "function"
    },
    {
      "inputs": [],
      "name": "withdrawWallet",
      "outputs": [
        {
          "internalType": "address payable",
          "name": "",
          "type": "address"
        }
      ],
      "stateMutability": "view",
      "type": "function"
    }
  ],
  "bytecode": "0x60806040526040518060400160405280600981526020017f417263616e6545544800000000000000000000000000000000000000000000008152506040518060400160405280600681526020017f41524345544800000000000000000000000000000000000000000000000000008152508160009081620000819190620005e1565b508060019081620000939190620005e1565b505050620000b6620000aa6200020b60201b60201c565b6200021360201b60201c565b6200010a6040518060a0016040528060006003811115620000dc57620000db620006c8565b5b8152602001633b9aca0081526020016000815260200160648152602001600a815250620002d960201b60201c565b6200015e6040518060a001604052806001600381111562000130576200012f620006c8565b5b8152602001637735940081526020016000815260200160648152602001600a815250620002d960201b60201c565b620001b26040518060a0016040528060026003811115620001845762000183620006c8565b5b815260200163b2d05e0081526020016000815260200160648152602001600a815250620002d960201b60201c565b620002056040518060a00160405280600380811115620001d757620001d6620006c8565b5b815260200163ee6b280081526020016000815260200160648152602001600a815250620002d960201b60201c565b620006f7565b600033905090565b6000600760009054906101000a900473ffffffffffffffffffffffffffffffffffffffff16905081600760006101000a81548173ffffffffffffffffffffffffffffffffffffffff021916908373ffffffffffffffffffffffffffffffffffffffff1602179055508173ffffffffffffffffffffffffffffffffffffffff168173ffffffffffffffffffffffffffffffffffffffff167f8be0079c531659141344cd1fd0a4f28419497f9722a3daafe3b4186f6b6457e060405160405180910390a35050565b806008600083600001516003811115620002f857620002f7620006c8565b5b815260200190815260200160002060008201518160000160006101000a81548160ff02191690836003811115620003345762000333620006c8565b5b02179055506020820151816001015560408201518160020155606082015181600301556080820151816004015590505050565b600081519050919050565b7f4e487b7100000000000000000000000000000000000000000000000000000000600052604160045260246000fd5b7f4e487b7100000000000000000000000000000000000000000000000000000000600052602260045260246000fd5b60006002820490506001821680620003e957607f821691505b602082108103620003ff57620003fe620003a1565b5b50919050565b60008190508160005260206000209050919050565b60006020601f8301049050919050565b600082821b905092915050565b600060088302620004697fffffffffffffffffffffffffffffffffffffffffffffffffffffffffffffffff826200042a565b6200047586836200042a565b95508019841693508086168417925050509392505050565b6000819050919050565b6000819050919050565b6000620004c2620004bc620004b6846200048d565b62000497565b6200048d565b9050919050565b6000819050919050565b620004de83620004a1565b620004f6620004ed82620004c9565b84845462000437565b825550505050565b600090565b6200050d620004fe565b6200051a818484620004d3565b505050565b5b8181101562000542576200053660008262000503565b60018101905062000520565b5050565b601f82111562000591576200055b8162000405565b62000566846200041a565b8101602085101562000576578190505b6200058e62000585856200041a565b8301826200051f565b50505b505050565b600082821c905092915050565b6000620005b66000198460080262000596565b1980831691505092915050565b6000620005d18383620005a3565b9150826002028217905092915050565b620005ec8262000367565b67ffffffffffffffff81111562000608576200060762000372565b5b620006148254620003d0565b6200062182828562000546565b600060209050601f83116001811462000659576000841562000644578287015190505b620006508582620005c3565b865550620006c0565b601f198416620006698662000405565b60005b8281101562000693578489015182556001820191506020850194506020810190506200066c565b86831015620006b35784890151620006af601f891682620005a3565b8355505b6001600288020188555050505b505050505050565b7f4e487b7100000000000000000000000000000000000000000000000000000000600052602160045260246000fd5b613e5f80620007076000396000f3fe6080604052600436106101b75760003560e01c806367412045116100ec578063b88d4fde1161008a578063d547cfb711610064578063d547cfb71461060f578063de41ac461461063a578063e985e9c51461067b578063f2fde38b146106b8576101b7565b8063b88d4fde1461056c578063c87b56dd14610595578063d03b3fc1146105d2576101b7565b806385d178f4116100c657806385d178f4146104c25780638da5cb5b146104ed57806395d89b4114610518578063a22cb46514610543576101b7565b8063674120451461043157806370a082311461046e578063715018a6146104ab576101b7565b806323b872dd116101595780633d04979d116101335780633d04979d1461037257806342842e0e1461038e5780634b0ee02a146103b75780636352211e146103f4576101b7565b806323b872dd1461030957806330176e13146103325780633ccfd60b1461035b576101b7565b8063081812fc11610195578063081812fc1461024f578063095ea7b31461028c57806318160ddd146102b55780632373ac22146102e0576101b7565b80630116bc2d146101bc57806301ffc9a7146101e757806306fdde0314610224575b600080fd5b3480156101c857600080fd5b506101d16106e1565b6040516101de9190612566565b60405180910390f35b3480156101f357600080fd5b5061020e600480360381019061020991906125ed565b6106f4565b60405161021b9190612566565b60405180910390f35b34801561023057600080fd5b50610239610755565b60405161024691906126aa565b60405180910390f35b34801561025b57600080fd5b5061027660048036038101906102719190612702565b6107e7565b6040516102839190612770565b60405180910390f35b34801561029857600080fd5b506102b360048036038101906102ae91906127b7565b61082d565b005b3480156102c157600080fd5b506102ca610944565b6040516102d79190612806565b60405180910390f35b3480156102ec57600080fd5b506103076004803603810190610302919061284d565b61094a565b005b34801561031557600080fd5b50610330600480360381019061032b919061287a565b61096f565b005b34801561033e57600080fd5b5061035960048036038101906103549190612932565b6109cf565b005b34801561036757600080fd5b506103706109ed565b005b61038c60048036038101906103879190612ad4565b610ac6565b005b34801561039a57600080fd5b506103b560048036038101906103b0919061287a565b610dd0565b005b3480156103c357600080fd5b506103de60048036038101906103d99190612b30565b610df0565b6040516103eb9190612806565b60405180910390f35b34801561040057600080fd5b5061041b60048036038101906104169190612702565b610e02565b6040516104289190612770565b60405180910390f35b34801561043d57600080fd5b5061045860048036038101906104539190612b5d565b610e88565b6040516104659190612806565b60405180910390f35b34801561047a57600080fd5b5061049560048036038101906104909190612b30565b610f07565b6040516104a29190612806565b60405180910390f35b3480156104b757600080fd5b506104c0610fbe565b005b3480156104ce57600080fd5b506104d7610fd2565b6040516104e49190612bbe565b60405180910390f35b3480156104f957600080fd5b50610502610ff8565b60405161050f9190612770565b60405180910390f35b34801561052457600080fd5b5061052d611022565b60405161053a91906126aa565b60405180910390f35b34801561054f57600080fd5b5061056a60048036038101906105659190612bd9565b6110b4565b005b34801561057857600080fd5b50610593600480360381019061058e9190612cba565b6110ca565b005b3480156105a157600080fd5b506105bc60048036038101906105b79190612702565b61112c565b6040516105c991906126aa565b60405180910390f35b3480156105de57600080fd5b506105f960048036038101906105f49190612b5d565b61123e565b6040516106069190612806565b60405180910390f35b34801561061b57600080fd5b50610624611263565b60405161063191906126aa565b60405180910390f35b34801561064657600080fd5b50610661600480360381019061065c9190612702565b6112f1565b604051610672959493929190612db4565b60405180910390f35b34801561068757600080fd5b506106a2600480360381019061069d9190612e07565b611334565b6040516106af9190612566565b60405180910390f35b3480156106c457600080fd5b506106df60048036038101906106da9190612b30565b6113c8565b005b600a60009054906101000a900460ff1681565b6000634906490660e01b7bffffffffffffffffffffffffffffffffffffffffffffffffffffffff1916827bffffffffffffffffffffffffffffffffffffffffffffffffffffffff1916148061074e575061074d8261144b565b5b9050919050565b60606000805461076490612e76565b80601f016020809104026020016040519081016040528092919081815260200182805461079090612e76565b80156107dd5780601f106107b2576101008083540402835291602001916107dd565b820191906000526020600020905b8154815290600101906020018083116107c057829003601f168201915b5050505050905090565b60006107f28261152d565b6004600083815260200190815260200160002060009054906101000a900473ffffffffffffffffffffffffffffffffffffffff169050919050565b600061083882610e02565b90508073ffffffffffffffffffffffffffffffffffffffff168373ffffffffffffffffffffffffffffffffffffffff16036108a8576040517f08c379a000000000000000000000000000000000000000000000000000000000815260040161089f90612f19565b60405180910390fd5b8073ffffffffffffffffffffffffffffffffffffffff166108c7611578565b73ffffffffffffffffffffffffffffffffffffffff1614806108f657506108f5816108f0611578565b611334565b5b610935576040517f08c379a000000000000000000000000000000000000000000000000000000000815260040161092c90612fab565b60405180910390fd5b61093f8383611580565b505050565b60095481565b610952611639565b80600a60006101000a81548160ff02191690831515021790555050565b61098061097a611578565b826116b7565b6109bf576040517f08c379a00000000000000000000000000000000000000000000000000000000081526004016109b69061303d565b60405180910390fd5b6109ca83838361174c565b505050565b6109d7611639565b8181600b91826109e8929190613214565b505050565b6109f5611639565b6000600c60009054906101000a900473ffffffffffffffffffffffffffffffffffffffff1673ffffffffffffffffffffffffffffffffffffffff1647604051610a3d90613315565b60006040518083038185875af1925050503d8060008114610a7a576040519150601f19603f3d011682016040523d82523d6000602084013e610a7f565b606091505b5050905080610ac3576040517f08c379a0000000000000000000000000000000000000000000000000000000008152600401610aba90613376565b60405180910390fd5b50565b600060086000846003811115610adf57610ade612d3d565b5b81526020019081526020016000209050600a60009054906101000a900460ff16610b3e576040517f08c379a0000000000000000000000000000000000000000000000000000000008152600401610b35906133e2565b60405180910390fd5b80600101543414610b84576040517f08c379a0000000000000000000000000000000000000000000000000000000008152600401610b7b9061344e565b60405180910390fd5b806003015460018260020154610b9a919061349d565b1115610bdb576040517f08c379a0000000000000000000000000000000000000000000000000000000008152600401610bd29061351d565b60405180910390fd5b80600401546001600d60003373ffffffffffffffffffffffffffffffffffffffff1673ffffffffffffffffffffffffffffffffffffffff1681526020019081526020016000206000866003811115610c3657610c35612d3d565b5b6003811115610c4857610c47612d3d565b5b815260200190815260200160002054610c61919061349d565b1115610ca2576040517f08c379a0000000000000000000000000000000000000000000000000000000008152600401610c9990613589565b60405180910390fd5b60006001600954610cb3919061349d565b9050816002016000815480929190610cca906135a9565b919050555060096000815480929190610ce2906135a9565b9190505550610cf13382611a45565b610cfb8184611a63565b6000600c60009054906101000a900473ffffffffffffffffffffffffffffffffffffffff1673ffffffffffffffffffffffffffffffffffffffff1634604051610d4390613315565b60006040518083038185875af1925050503d8060008114610d80576040519150601f19603f3d011682016040523d82523d6000602084013e610d85565b606091505b5050905080610dc9576040517f08c379a0000000000000000000000000000000000000000000000000000000008152600401610dc09061363d565b60405180910390fd5b5050505050565b610deb838383604051806020016040528060008152506110ca565b505050565b6000610dfb82610f07565b9050919050565b600080610e0e83611b07565b9050600073ffffffffffffffffffffffffffffffffffffffff168173ffffffffffffffffffffffffffffffffffffffff1603610e7f576040517f08c379a0000000000000000000000000000000000000000000000000000000008152600401610e76906136a9565b60405180910390fd5b80915050919050565b6000600d60008473ffffffffffffffffffffffffffffffffffffffff1673ffffffffffffffffffffffffffffffffffffffff1681526020019081526020016000206000836003811115610ede57610edd612d3d565b5b6003811115610ef057610eef612d3d565b5b815260200190815260200160002054905092915050565b60008073ffffffffffffffffffffffffffffffffffffffff168273ffffffffffffffffffffffffffffffffffffffff1603610f77576040517f08c379a0000000000000000000000000000000000000000000000000000000008152600401610f6e9061373b565b60405180910390fd5b600360008373ffffffffffffffffffffffffffffffffffffffff1673ffffffffffffffffffffffffffffffffffffffff168152602001908152602001600020549050919050565b610fc6611639565b610fd06000611b44565b565b600c60009054906101000a900473ffffffffffffffffffffffffffffffffffffffff1681565b6000600760009054906101000a900473ffffffffffffffffffffffffffffffffffffffff16905090565b60606001805461103190612e76565b80601f016020809104026020016040519081016040528092919081815260200182805461105d90612e76565b80156110aa5780601f1061107f576101008083540402835291602001916110aa565b820191906000526020600020905b81548152906001019060200180831161108d57829003601f168201915b5050505050905090565b6110c66110bf611578565b8383611c0a565b5050565b6110db6110d5611578565b836116b7565b61111a576040517f08c379a00000000000000000000000000000000000000000000000000000000081526004016111119061303d565b60405180910390fd5b61112684848484611d76565b50505050565b60606111378261152d565b600060066000848152602001908152602001600020805461115790612e76565b80601f016020809104026020016040519081016040528092919081815260200182805461118390612e76565b80156111d05780601f106111a5576101008083540402835291602001916111d0565b820191906000526020600020905b8154815290600101906020018083116111b357829003601f168201915b5050505050905060006111e1611dd2565b905060008151036111f6578192505050611239565b60008251111561122b578082604051602001611213929190613797565b60405160208183030381529060405292505050611239565b61123484611de9565b925050505b919050565b600d602052816000526040600020602052806000526040600020600091509150505481565b600b805461127090612e76565b80601f016020809104026020016040519081016040528092919081815260200182805461129c90612e76565b80156112e95780601f106112be576101008083540402835291602001916112e9565b820191906000526020600020905b8154815290600101906020018083116112cc57829003601f168201915b505050505081565b60086020528060005260406000206000915090508060000160009054906101000a900460ff16908060010154908060020154908060030154908060040154905085565b6000600560008473ffffffffffffffffffffffffffffffffffffffff1673ffffffffffffffffffffffffffffffffffffffff16815260200190815260200160002060008373ffffffffffffffffffffffffffffffffffffffff1673ffffffffffffffffffffffffffffffffffffffff16815260200190815260200160002060009054906101000a900460ff16905092915050565b6113d0611639565b600073ffffffffffffffffffffffffffffffffffffffff168173ffffffffffffffffffffffffffffffffffffffff160361143f576040517f08c379a00000000000000000000000000000000000000000000000000000000081526004016114369061382d565b60405180910390fd5b61144881611b44565b50565b60007f80ac58cd000000000000000000000000000000000000000000000000000000007bffffffffffffffffffffffffffffffffffffffffffffffffffffffff1916827bffffffffffffffffffffffffffffffffffffffffffffffffffffffff1916148061151657507f5b5e139f000000000000000000000000000000000000000000000000000000007bffffffffffffffffffffffffffffffffffffffffffffffffffffffff1916827bffffffffffffffffffffffffffffffffffffffffffffffffffffffff1916145b80611526575061152582611e51565b5b9050919050565b61153681611ebb565b611575576040517f08c379a000000000000000000000000000000000000000000000000000000000815260040161156c906136a9565b60405180910390fd5b50565b600033905090565b816004600083815260200190815260200160002060006101000a81548173ffffffffffffffffffffffffffffffffffffffff021916908373ffffffffffffffffffffffffffffffffffffffff160217905550808273ffffffffffffffffffffffffffffffffffffffff166115f383610e02565b73ffffffffffffffffffffffffffffffffffffffff167f8c5be1e5ebec7d5bd14f71427d1e84f3dd0314c0f7b2291e5b200ac8c7c3b92560405160405180910390a45050565b611641611578565b73ffffffffffffffffffffffffffffffffffffffff1661165f610ff8565b73ffffffffffffffffffffffffffffffffffffffff16146116b5576040517f08c379a00000000000000000000000000000000000000000000000000000000081526004016116ac90613899565b60405180910390fd5b565b6000806116c383610e02565b90508073ffffffffffffffffffffffffffffffffffffffff168473ffffffffffffffffffffffffffffffffffffffff16148061170557506117048185611334565b5b8061174357508373ffffffffffffffffffffffffffffffffffffffff1661172b846107e7565b73ffffffffffffffffffffffffffffffffffffffff16145b91505092915050565b8273ffffffffffffffffffffffffffffffffffffffff1661176c82610e02565b73ffffffffffffffffffffffffffffffffffffffff16146117c2576040517f08c379a00000000000000000000000000000000000000000000000000000000081526004016117b99061392b565b60405180910390fd5b600073ffffffffffffffffffffffffffffffffffffffff168273ffffffffffffffffffffffffffffffffffffffff1603611831576040517f08c379a0000000000000000000000000000000000000000000000000000000008152600401611828906139bd565b60405180910390fd5b61183e8383836001611efc565b8273ffffffffffffffffffffffffffffffffffffffff1661185e82610e02565b73ffffffffffffffffffffffffffffffffffffffff16146118b4576040517f08c379a00000000000000000000000000000000000000000000000000000000081526004016118ab9061392b565b60405180910390fd5b6004600082815260200190815260200160002060006101000a81549073ffffffffffffffffffffffffffffffffffffffff02191690556001600360008573ffffffffffffffffffffffffffffffffffffffff1673ffffffffffffffffffffffffffffffffffffffff168152602001908152602001600020600082825403925050819055506001600360008473ffffffffffffffffffffffffffffffffffffffff1673ffffffffffffffffffffffffffffffffffffffff16815260200190815260200160002060008282540192505081905550816002600083815260200190815260200160002060006101000a81548173ffffffffffffffffffffffffffffffffffffffff021916908373ffffffffffffffffffffffffffffffffffffffff160217905550808273ffffffffffffffffffffffffffffffffffffffff168473ffffffffffffffffffffffffffffffffffffffff167fddf252ad1be2c89b69c2b068fc378daa952ba7f163c4a11628f55a4df523b3ef60405160405180910390a4611a408383836001611f02565b505050565b611a5f828260405180602001604052806000815250611f08565b5050565b611a6c82611ebb565b611aab576040517f08c379a0000000000000000000000000000000000000000000000000000000008152600401611aa290613a4f565b60405180910390fd5b80600660008481526020019081526020016000209081611acb9190613a6f565b507ff8e1a15aba9398e019f0b49df1a4fde98ee17ae345cb5f6b5e2c27f5033e8ce782604051611afb9190612806565b60405180910390a15050565b60006002600083815260200190815260200160002060009054906101000a900473ffffffffffffffffffffffffffffffffffffffff169050919050565b6000600760009054906101000a900473ffffffffffffffffffffffffffffffffffffffff16905081600760006101000a81548173ffffffffffffffffffffffffffffffffffffffff021916908373ffffffffffffffffffffffffffffffffffffffff1602179055508173ffffffffffffffffffffffffffffffffffffffff168173ffffffffffffffffffffffffffffffffffffffff167f8be0079c531659141344cd1fd0a4f28419497f9722a3daafe3b4186f6b6457e060405160405180910390a35050565b8173ffffffffffffffffffffffffffffffffffffffff168373ffffffffffffffffffffffffffffffffffffffff1603611c78576040517f08c379a0000000000000000000000000000000000000000000000000000000008152600401611c6f90613b8d565b60405180910390fd5b80600560008573ffffffffffffffffffffffffffffffffffffffff1673ffffffffffffffffffffffffffffffffffffffff16815260200190815260200160002060008473ffffffffffffffffffffffffffffffffffffffff1673ffffffffffffffffffffffffffffffffffffffff16815260200190815260200160002060006101000a81548160ff0219169083151502179055508173ffffffffffffffffffffffffffffffffffffffff168373ffffffffffffffffffffffffffffffffffffffff167f17307eab39ab6107e8899845ad3d59bd9653f200f220920489ca2b5937696c3183604051611d699190612566565b60405180910390a3505050565b611d8184848461174c565b611d8d84848484611f63565b611dcc576040517f08c379a0000000000000000000000000000000000000000000000000000000008152600401611dc390613c1f565b60405180910390fd5b50505050565b606060405180602001604052806000815250905090565b6060611df48261152d565b6000611dfe611dd2565b90506000815111611e1e5760405180602001604052806000815250611e49565b80611e28846120ea565b604051602001611e39929190613797565b6040516020818303038152906040525b915050919050565b60007f01ffc9a7000000000000000000000000000000000000000000000000000000007bffffffffffffffffffffffffffffffffffffffffffffffffffffffff1916827bffffffffffffffffffffffffffffffffffffffffffffffffffffffff1916149050919050565b60008073ffffffffffffffffffffffffffffffffffffffff16611edd83611b07565b73ffffffffffffffffffffffffffffffffffffffff1614159050919050565b50505050565b50505050565b611f1283836121b8565b611f1f6000848484611f63565b611f5e576040517f08c379a0000000000000000000000000000000000000000000000000000000008152600401611f5590613c1f565b60405180910390fd5b505050565b6000611f848473ffffffffffffffffffffffffffffffffffffffff166123d5565b156120dd578373ffffffffffffffffffffffffffffffffffffffff1663150b7a02611fad611578565b8786866040518563ffffffff1660e01b8152600401611fcf9493929190613c94565b6020604051808303816000875af192505050801561200b57506040513d601f19601f820116820180604052508101906120089190613cf5565b60015b61208d573d806000811461203b576040519150601f19603f3d011682016040523d82523d6000602084013e612040565b606091505b506000815103612085576040517f08c379a000000000000000000000000000000000000000000000000000000000815260040161207c90613c1f565b60405180910390fd5b805181602001fd5b63150b7a0260e01b7bffffffffffffffffffffffffffffffffffffffffffffffffffffffff1916817bffffffffffffffffffffffffffffffffffffffffffffffffffffffff1916149150506120e2565b600190505b949350505050565b6060600060016120f9846123f8565b01905060008167ffffffffffffffff811115612118576121176129a9565b5b6040519080825280601f01601f19166020018201604052801561214a5781602001600182028036833780820191505090505b509050600082602001820190505b6001156121ad578080600190039150507f3031323334353637383961626364656600000000000000000000000000000000600a86061a8153600a85816121a1576121a0613d22565b5b04945060008503612158575b819350505050919050565b600073ffffffffffffffffffffffffffffffffffffffff168273ffffffffffffffffffffffffffffffffffffffff1603612227576040517f08c379a000000000000000000000000000000000000000000000000000000000815260040161221e90613d9d565b60405180910390fd5b61223081611ebb565b15612270576040517f08c379a000000000000000000000000000000000000000000000000000000000815260040161226790613e09565b60405180910390fd5b61227e600083836001611efc565b61228781611ebb565b156122c7576040517f08c379a00000000000000000000000000000000000000000000000000000000081526004016122be90613e09565b60405180910390fd5b6001600360008473ffffffffffffffffffffffffffffffffffffffff1673ffffffffffffffffffffffffffffffffffffffff16815260200190815260200160002060008282540192505081905550816002600083815260200190815260200160002060006101000a81548173ffffffffffffffffffffffffffffffffffffffff021916908373ffffffffffffffffffffffffffffffffffffffff160217905550808273ffffffffffffffffffffffffffffffffffffffff16600073ffffffffffffffffffffffffffffffffffffffff167fddf252ad1be2c89b69c2b068fc378daa952ba7f163c4a11628f55a4df523b3ef60405160405180910390a46123d1600083836001611f02565b5050565b6000808273ffffffffffffffffffffffffffffffffffffffff163b119050919050565b600080600090507a184f03e93ff9f4daa797ed6e38ed64bf6a1f0100000000000000008310612456577a184f03e93ff9f4daa797ed6e38ed64bf6a1f010000000000000000838161244c5761244b613d22565b5b0492506040810190505b6d04ee2d6d415b85acef81000000008310612493576d04ee2d6d415b85acef8100000000838161248957612488613d22565b5b0492506020810190505b662386f26fc1000083106124c257662386f26fc1000083816124b8576124b7613d22565b5b0492506010810190505b6305f5e10083106124eb576305f5e10083816124e1576124e0613d22565b5b0492506008810190505b612710831061251057612710838161250657612505613d22565b5b0492506004810190505b60648310612533576064838161252957612528613d22565b5b0492506002810190505b600a8310612542576001810190505b80915050919050565b60008115159050919050565b6125608161254b565b82525050565b600060208201905061257b6000830184612557565b92915050565b6000604051905090565b600080fd5b600080fd5b60007fffffffff0000000000000000000000000000000000000000000000000000000082169050919050565b6125ca81612595565b81146125d557600080fd5b50565b6000813590506125e7816125c1565b92915050565b6000602082840312156126035761260261258b565b5b6000612611848285016125d8565b91505092915050565b600081519050919050565b600082825260208201905092915050565b60005b83811015612654578082015181840152602081019050612639565b60008484015250505050565b6000601f19601f8301169050919050565b600061267c8261261a565b6126868185612625565b9350612696818560208601612636565b61269f81612660565b840191505092915050565b600060208201905081810360008301526126c48184612671565b905092915050565b6000819050919050565b6126df816126cc565b81146126ea57600080fd5b50565b6000813590506126fc816126d6565b92915050565b6000602082840312156127185761271761258b565b5b6000612726848285016126ed565b91505092915050565b600073ffffffffffffffffffffffffffffffffffffffff82169050919050565b600061275a8261272f565b9050919050565b61276a8161274f565b82525050565b60006020820190506127856000830184612761565b92915050565b6127948161274f565b811461279f57600080fd5b50565b6000813590506127b18161278b565b92915050565b600080604083850312156127ce576127cd61258b565b5b60006127dc858286016127a2565b92505060206127ed858286016126ed565b9150509250929050565b612800816126cc565b82525050565b600060208201905061281b60008301846127f7565b92915050565b61282a8161254b565b811461283557600080fd5b50565b60008135905061284781612821565b92915050565b6000602082840312156128635761286261258b565b5b600061287184828501612838565b91505092915050565b6000806000606084860312156128935761289261258b565b5b60006128a1868287016127a2565b93505060206128b2868287016127a2565b92505060406128c3868287016126ed565b9150509250925092565b600080fd5b600080fd5b600080fd5b60008083601f8401126128f2576128f16128cd565b5b8235905067ffffffffffffffff81111561290f5761290e6128d2565b5b60208301915083600182028301111561292b5761292a6128d7565b5b9250929050565b600080602083850312156129495761294861258b565b5b600083013567ffffffffffffffff81111561296757612966612590565b5b612973858286016128dc565b92509250509250929050565b6004811061298c57600080fd5b50565b60008135905061299e8161297f565b92915050565b600080fd5b7f4e487b7100000000000000000000000000000000000000000000000000000000600052604160045260246000fd5b6129e182612660565b810181811067ffffffffffffffff82111715612a00576129ff6129a9565b5b80604052505050565b6000612a13612581565b9050612a1f82826129d8565b919050565b600067ffffffffffffffff821115612a3f57612a3e6129a9565b5b612a4882612660565b9050602081019050919050565b82818337600083830152505050565b6000612a77612a7284612a24565b612a09565b905082815260208101848484011115612a9357612a926129a4565b5b612a9e848285612a55565b509392505050565b600082601f830112612abb57612aba6128cd565b5b8135612acb848260208601612a64565b91505092915050565b60008060408385031215612aeb57612aea61258b565b5b6000612af98582860161298f565b925050602083013567ffffffffffffffff811115612b1a57612b19612590565b5b612b2685828601612aa6565b9150509250929050565b600060208284031215612b4657612b4561258b565b5b6000612b54848285016127a2565b91505092915050565b60008060408385031215612b7457612b7361258b565b5b6000612b82858286016127a2565b9250506020612b938582860161298f565b9150509250929050565b6000612ba88261272f565b9050919050565b612bb881612b9d565b82525050565b6000602082019050612bd36000830184612baf565b92915050565b60008060408385031215612bf057612bef61258b565b5b6000612bfe858286016127a2565b9250506020612c0f85828601612838565b9150509250929050565b600067ffffffffffffffff821115612c3457612c336129a9565b5b612c3d82612660565b9050602081019050919050565b6000612c5d612c5884612c19565b612a09565b905082815260208101848484011115612c7957612c786129a4565b5b612c84848285612a55565b509392505050565b600082601f830112612ca157612ca06128cd565b5b8135612cb1848260208601612c4a565b91505092915050565b60008060008060808587031215612cd457612cd361258b565b5b6000612ce2878288016127a2565b9450506020612cf3878288016127a2565b9350506040612d04878288016126ed565b925050606085013567ffffffffffffffff811115612d2557612d24612590565b5b612d3187828801612c8c565b91505092959194509250565b7f4e487b7100000000000000000000000000000000000000000000000000000000600052602160045260246000fd5b60048110612d7d57612d7c612d3d565b5b50565b6000819050612d8e82612d6c565b919050565b6000612d9e82612d80565b9050919050565b612dae81612d93565b82525050565b600060a082019050612dc96000830188612da5565b612dd660208301876127f7565b612de360408301866127f7565b612df060608301856127f7565b612dfd60808301846127f7565b9695505050505050565b60008060408385031215612e1e57612e1d61258b565b5b6000612e2c858286016127a2565b9250506020612e3d858286016127a2565b9150509250929050565b7f4e487b7100000000000000000000000000000000000000000000000000000000600052602260045260246000fd5b60006002820490506001821680612e8e57607f821691505b602082108103612ea157612ea0612e47565b5b50919050565b7f4552433732313a20617070726f76616c20746f2063757272656e74206f776e6560008201527f7200000000000000000000000000000000000000000000000000000000000000602082015250565b6000612f03602183612625565b9150612f0e82612ea7565b604082019050919050565b60006020820190508181036000830152612f3281612ef6565b9050919050565b7f4552433732313a20617070726f76652063616c6c6572206973206e6f7420746f60008201527f6b656e206f776e6572206f7220617070726f76656420666f7220616c6c000000602082015250565b6000612f95603d83612625565b9150612fa082612f39565b604082019050919050565b60006020820190508181036000830152612fc481612f88565b9050919050565b7f4552433732313a2063616c6c6572206973206e6f7420746f6b656e206f776e6560008201527f72206f7220617070726f76656400000000000000000000000000000000000000602082015250565b6000613027602d83612625565b915061303282612fcb565b604082019050919050565b600060208201905081810360008301526130568161301a565b9050919050565b600082905092915050565b60008190508160005260206000209050919050565b60006020601f8301049050919050565b600082821b905092915050565b6000600883026130ca7fffffffffffffffffffffffffffffffffffffffffffffffffffffffffffffffff8261308d565b6130d4868361308d565b95508019841693508086168417925050509392505050565b6000819050919050565b600061311161310c613107846126cc565b6130ec565b6126cc565b9050919050565b6000819050919050565b61312b836130f6565b61313f61313782613118565b84845461309a565b825550505050565b600090565b613154613147565b61315f818484613122565b505050565b5b818110156131835761317860008261314c565b600181019050613165565b5050565b601f8211156131c85761319981613068565b6131a28461307d565b810160208510156131b1578190505b6131c56131bd8561307d565b830182613164565b50505b505050565b600082821c905092915050565b60006131eb600019846008026131cd565b1980831691505092915050565b600061320483836131da565b9150826002028217905092915050565b61321e838361305d565b67ffffffffffffffff811115613237576132366129a9565b5b6132418254612e76565b61324c828285613187565b6000601f83116001811461327b5760008415613269578287013590505b61327385826131f8565b8655506132db565b601f19841661328986613068565b60005b828110156132b15784890135825560018201915060208501945060208101905061328c565b868310156132ce57848901356132ca601f8916826131da565b8355505b6001600288020188555050505b50505050505050565b600081905092915050565b50565b60006132ff6000836132e4565b915061330a826132ef565b600082019050919050565b6000613320826132f2565b9150819050919050565b7f5769746864726177206661696c65640000000000000000000000000000000000600082015250565b6000613360600f83612625565b915061336b8261332a565b602082019050919050565b6000602082019050818103600083015261338f81613353565b9050919050565b7f4d696e74696e67206e6f7420656e61626c656400000000000000000000000000600082015250565b60006133cc601383612625565b91506133d782613396565b602082019050919050565b600060208201905081810360008301526133fb816133bf565b9050919050565b7f57726f6e67206d696e742076616c756500000000000000000000000000000000600082015250565b6000613438601083612625565b915061344382613402565b602082019050919050565b600060208201905081810360008301526134678161342b565b9050919050565b7f4e487b7100000000000000000000000000000000000000000000000000000000600052601160045260246000fd5b60006134a8826126cc565b91506134b3836126cc565b92508282019050808211156134cb576134ca61346e565b5b92915050565b7f536f6c64204f7574000000000000000000000000000000000000000000000000600082015250565b6000613507600883612625565b9150613512826134d1565b602082019050919050565b60006020820190508181036000830152613536816134fa565b9050919050565b7f457863656564206d61782077616c6c6574000000000000000000000000000000600082015250565b6000613573601183612625565b915061357e8261353d565b602082019050919050565b600060208201905081810360008301526135a281613566565b9050919050565b60006135b4826126cc565b91507fffffffffffffffffffffffffffffffffffffffffffffffffffffffffffffffff82036135e6576135e561346e565b5b600182019050919050565b7f5472616e73666572206661696c65640000000000000000000000000000000000600082015250565b6000613627600f83612625565b9150613632826135f1565b602082019050919050565b600060208201905081810360008301526136568161361a565b9050919050565b7f4552433732313a20696e76616c696420746f6b656e2049440000000000000000600082015250565b6000613693601883612625565b915061369e8261365d565b602082019050919050565b600060208201905081810360008301526136c281613686565b9050919050565b7f4552433732313a2061646472657373207a65726f206973206e6f74206120766160008201527f6c6964206f776e65720000000000000000000000000000000000000000000000602082015250565b6000613725602983612625565b9150613730826136c9565b604082019050919050565b6000602082019050818103600083015261375481613718565b9050919050565b600081905092915050565b60006137718261261a565b61377b818561375b565b935061378b818560208601612636565b80840191505092915050565b60006137a38285613766565b91506137af8284613766565b91508190509392505050565b7f4f776e61626c653a206e6577206f776e657220697320746865207a65726f206160008201527f6464726573730000000000000000000000000000000000000000000000000000602082015250565b6000613817602683612625565b9150613822826137bb565b604082019050919050565b600060208201905081810360008301526138468161380a565b9050919050565b7f4f776e61626c653a2063616c6c6572206973206e6f7420746865206f776e6572600082015250565b6000613883602083612625565b915061388e8261384d565b602082019050919050565b600060208201905081810360008301526138b281613876565b9050919050565b7f4552433732313a207472616e736665722066726f6d20696e636f72726563742060008201527f6f776e6572000000000000000000000000000000000000000000000000000000602082015250565b6000613915602583612625565b9150613920826138b9565b604082019050919050565b6000602082019050818103600083015261394481613908565b9050919050565b7f4552433732313a207472616e7366657220746f20746865207a65726f2061646460008201527f7265737300000000000000000000000000000000000000000000000000000000602082015250565b60006139a7602483612625565b91506139b28261394b565b604082019050919050565b600060208201905081810360008301526139d68161399a565b9050919050565b7f45524337323155524953746f726167653a2055524920736574206f66206e6f6e60008201527f6578697374656e7420746f6b656e000000000000000000000000000000000000602082015250565b6000613a39602e83612625565b9150613a44826139dd565b604082019050919050565b60006020820190508181036000830152613a6881613a2c565b9050919050565b613a788261261a565b67ffffffffffffffff811115613a9157613a906129a9565b5b613a9b8254612e76565b613aa6828285613187565b600060209050601f831160018114613ad95760008415613ac7578287015190505b613ad185826131f8565b865550613b39565b601f198416613ae786613068565b60005b82811015613b0f57848901518255600182019150602085019450602081019050613aea565b86831015613b2c5784890151613b28601f8916826131da565b8355505b6001600288020188555050505b505050505050565b7f4552433732313a20617070726f766520746f2063616c6c657200000000000000600082015250565b6000613b77601983612625565b9150613b8282613b41565b602082019050919050565b60006020820190508181036000830152613ba681613b6a565b9050919050565b7f4552433732313a207472616e7366657220746f206e6f6e20455243373231526560008201527f63656976657220696d706c656d656e7465720000000000000000000000000000602082015250565b6000613c09603283612625565b9150613c1482613bad565b604082019050919050565b60006020820190508181036000830152613c3881613bfc565b9050919050565b600081519050919050565b600082825260208201905092915050565b6000613c6682613c3f565b613c708185613c4a565b9350613c80818560208601612636565b613c8981612660565b840191505092915050565b6000608082019050613ca96000830187612761565b613cb66020830186612761565b613cc360408301856127f7565b8181036060830152613cd58184613c5b565b905095945050505050565b600081519050613cef816125c1565b92915050565b600060208284031215613d0b57613d0a61258b565b5b6000613d1984828501613ce0565b91505092915050565b7f4e487b7100000000000000000000000000000000000000000000000000000000600052601260045260246000fd5b7f4552433732313a206d696e7420746f20746865207a65726f2061646472657373600082015250565b6000613d87602083612625565b9150613d9282613d51565b602082019050919050565b60006020820190508181036000830152613db681613d7a565b9050919050565b7f4552433732313a20746f6b656e20616c7265616479206d696e74656400000000600082015250565b6000613df3601c83612625565b9150613dfe82613dbd565b602082019050919050565b60006020820190508181036000830152613e2281613de6565b905091905056fea2646970667358221220655134d3b224fe79c5e4b14008e3f22d40547df4dfb4277bba630fd0d1e235fb64736f6c63430008110033",
  "linkReferences": {},
  "deployedLinkReferences": {}
}